
main.elf:     file format elf32-avr

Sections:
Idx Name          Size      VMA       LMA       File off  Algn
  0 .text         000001a2  00000000  00000000  00000054  2**1
                  CONTENTS, ALLOC, LOAD, READONLY, CODE
  1 .debug_aranges 00000060  00000000  00000000  000001f6  2**0
                  CONTENTS, READONLY, DEBUGGING
  2 .debug_pubnames 00000065  00000000  00000000  00000256  2**0
                  CONTENTS, READONLY, DEBUGGING
  3 .debug_info   0000027f  00000000  00000000  000002bb  2**0
                  CONTENTS, READONLY, DEBUGGING
  4 .debug_abbrev 000001a4  00000000  00000000  0000053a  2**0
                  CONTENTS, READONLY, DEBUGGING
  5 .debug_line   000002c0  00000000  00000000  000006de  2**0
                  CONTENTS, READONLY, DEBUGGING
  6 .debug_frame  00000070  00000000  00000000  000009a0  2**2
                  CONTENTS, READONLY, DEBUGGING
  7 .debug_str    00000141  00000000  00000000  00000a10  2**0
                  CONTENTS, READONLY, DEBUGGING
  8 .debug_loc    00000040  00000000  00000000  00000b51  2**0
                  CONTENTS, READONLY, DEBUGGING
  9 .debug_ranges 00000048  00000000  00000000  00000b91  2**0
                  CONTENTS, READONLY, DEBUGGING

Disassembly of section .text:

00000000 <__vectors>:
   0:	0c 94 2a 00 	jmp	0x54	; 0x54 <__ctors_end>
   4:	0c 94 34 00 	jmp	0x68	; 0x68 <__bad_interrupt>
   8:	0c 94 34 00 	jmp	0x68	; 0x68 <__bad_interrupt>
   c:	0c 94 34 00 	jmp	0x68	; 0x68 <__bad_interrupt>
  10:	0c 94 34 00 	jmp	0x68	; 0x68 <__bad_interrupt>
  14:	0c 94 34 00 	jmp	0x68	; 0x68 <__bad_interrupt>
  18:	0c 94 34 00 	jmp	0x68	; 0x68 <__bad_interrupt>
  1c:	0c 94 34 00 	jmp	0x68	; 0x68 <__bad_interrupt>
  20:	0c 94 34 00 	jmp	0x68	; 0x68 <__bad_interrupt>
  24:	0c 94 34 00 	jmp	0x68	; 0x68 <__bad_interrupt>
  28:	0c 94 34 00 	jmp	0x68	; 0x68 <__bad_interrupt>
  2c:	0c 94 34 00 	jmp	0x68	; 0x68 <__bad_interrupt>
  30:	0c 94 34 00 	jmp	0x68	; 0x68 <__bad_interrupt>
  34:	0c 94 34 00 	jmp	0x68	; 0x68 <__bad_interrupt>
  38:	0c 94 34 00 	jmp	0x68	; 0x68 <__bad_interrupt>
  3c:	0c 94 34 00 	jmp	0x68	; 0x68 <__bad_interrupt>
  40:	0c 94 34 00 	jmp	0x68	; 0x68 <__bad_interrupt>
  44:	0c 94 34 00 	jmp	0x68	; 0x68 <__bad_interrupt>
  48:	0c 94 34 00 	jmp	0x68	; 0x68 <__bad_interrupt>
  4c:	0c 94 34 00 	jmp	0x68	; 0x68 <__bad_interrupt>
  50:	0c 94 34 00 	jmp	0x68	; 0x68 <__bad_interrupt>

00000054 <__ctors_end>:
  54:	11 24       	eor	r1, r1
  56:	1f be       	out	0x3f, r1	; 63
  58:	cf e5       	ldi	r28, 0x5F	; 95
  5a:	d8 e0       	ldi	r29, 0x08	; 8
  5c:	de bf       	out	0x3e, r29	; 62
  5e:	cd bf       	out	0x3d, r28	; 61
  60:	0e 94 36 00 	call	0x6c	; 0x6c <main>
  64:	0c 94 cf 00 	jmp	0x19e	; 0x19e <_exit>

00000068 <__bad_interrupt>:
  68:	0c 94 00 00 	jmp	0	; 0x0 <__vectors>

0000006c <main>:
#include "7seg.h"
#define ldr_thresh 512

int main()
{
	DDRC=0b11111111;
  6c:	8f ef       	ldi	r24, 0xFF	; 255
  6e:	84 bb       	out	0x14, r24	; 20
	DDRB=0b00000001;
  70:	81 e0       	ldi	r24, 0x01	; 1
  72:	87 bb       	out	0x17, r24	; 23
	adc_init();
  74:	0e 94 49 00 	call	0x92	; 0x92 <adc_init>
	int adc_value,count=0;
	while(1)
	{
		adc_value=adc_read();
  78:	0e 94 4f 00 	call	0x9e	; 0x9e <adc_read>
		if(adc_value<ldr_thresh)
  7c:	22 e0       	ldi	r18, 0x02	; 2
  7e:	80 30       	cpi	r24, 0x00	; 0
  80:	92 07       	cpc	r25, r18
  82:	14 f4       	brge	.+4      	; 0x88 <main+0x1c>
		{
			PORTB |= 1<<PINB0;
  84:	c0 9a       	sbi	0x18, 0	; 24
  86:	02 c0       	rjmp	.+4      	; 0x8c <main+0x20>
			count++;
		}
		else
		{
			PORTB &= 0<<PINB0;
  88:	28 b3       	in	r18, 0x18	; 24
  8a:	18 ba       	out	0x18, r1	; 24
		}
		display(adc_value);
  8c:	0e 94 5d 00 	call	0xba	; 0xba <display>
  90:	f3 cf       	rjmp	.-26     	; 0x78 <main+0xc>

00000092 <adc_init>:
  92:	80 e4       	ldi	r24, 0x40	; 64
  94:	87 b9       	out	0x07, r24	; 7
  96:	84 e0       	ldi	r24, 0x04	; 4
  98:	86 b9       	out	0x06, r24	; 6
  9a:	37 9a       	sbi	0x06, 7	; 6
  9c:	08 95       	ret

0000009e <adc_read>:
  9e:	87 b1       	in	r24, 0x07	; 7
  a0:	87 b9       	out	0x07, r24	; 7
  a2:	36 9a       	sbi	0x06, 6	; 6
  a4:	24 b1       	in	r18, 0x04	; 4
  a6:	45 b1       	in	r20, 0x05	; 5
  a8:	36 99       	sbic	0x06, 6	; 6
  aa:	fe cf       	rjmp	.-4      	; 0xa8 <adc_read+0xa>
  ac:	30 e0       	ldi	r19, 0x00	; 0
  ae:	94 2f       	mov	r25, r20
  b0:	80 e0       	ldi	r24, 0x00	; 0
  b2:	28 2b       	or	r18, r24
  b4:	39 2b       	or	r19, r25
  b6:	c9 01       	movw	r24, r18
  b8:	08 95       	ret

000000ba <display>:
  ba:	df 93       	push	r29
  bc:	cf 93       	push	r28
  be:	cd b7       	in	r28, 0x3d	; 61
  c0:	de b7       	in	r29, 0x3e	; 62
  c2:	28 97       	sbiw	r28, 0x08	; 8
  c4:	0f b6       	in	r0, 0x3f	; 63
  c6:	f8 94       	cli
  c8:	de bf       	out	0x3e, r29	; 62
  ca:	0f be       	out	0x3f, r0	; 63
  cc:	cd bf       	out	0x3d, r28	; 61
  ce:	9c 01       	movw	r18, r24
  d0:	fe 01       	movw	r30, r28
  d2:	31 96       	adiw	r30, 0x01	; 1
  d4:	88 e0       	ldi	r24, 0x08	; 8
  d6:	df 01       	movw	r26, r30
  d8:	1d 92       	st	X+, r1
  da:	8a 95       	dec	r24
  dc:	e9 f7       	brne	.-6      	; 0xd8 <display+0x1e>
  de:	0d c0       	rjmp	.+26     	; 0xfa <display+0x40>
  e0:	c9 01       	movw	r24, r18
  e2:	6a e0       	ldi	r22, 0x0A	; 10
  e4:	70 e0       	ldi	r23, 0x00	; 0
  e6:	0e 94 a8 00 	call	0x150	; 0x150 <__divmodhi4>
  ea:	81 93       	st	Z+, r24
  ec:	91 93       	st	Z+, r25
  ee:	c9 01       	movw	r24, r18
  f0:	6a e0       	ldi	r22, 0x0A	; 10
  f2:	70 e0       	ldi	r23, 0x00	; 0
  f4:	0e 94 a8 00 	call	0x150	; 0x150 <__divmodhi4>
  f8:	9b 01       	movw	r18, r22
  fa:	21 15       	cp	r18, r1
  fc:	31 05       	cpc	r19, r1
  fe:	81 f7       	brne	.-32     	; 0xe0 <display+0x26>
 100:	fe 01       	movw	r30, r28
 102:	37 96       	adiw	r30, 0x07	; 7
 104:	44 e0       	ldi	r20, 0x04	; 4
 106:	50 e0       	ldi	r21, 0x00	; 0
 108:	a1 e0       	ldi	r26, 0x01	; 1
 10a:	b0 e0       	ldi	r27, 0x00	; 0
    milliseconds can be achieved.
 */
void
_delay_loop_2(uint16_t __count)
{
	__asm__ volatile (
 10c:	60 ed       	ldi	r22, 0xD0	; 208
 10e:	77 e0       	ldi	r23, 0x07	; 7
 110:	80 81       	ld	r24, Z
 112:	80 6f       	ori	r24, 0xF0	; 240
 114:	85 bb       	out	0x15, r24	; 21
 116:	25 b3       	in	r18, 0x15	; 21
 118:	cd 01       	movw	r24, r26
 11a:	04 2e       	mov	r0, r20
 11c:	02 c0       	rjmp	.+4      	; 0x122 <display+0x68>
 11e:	88 0f       	add	r24, r24
 120:	99 1f       	adc	r25, r25
 122:	0a 94       	dec	r0
 124:	e2 f7       	brpl	.-8      	; 0x11e <display+0x64>
 126:	80 95       	com	r24
 128:	82 23       	and	r24, r18
 12a:	85 bb       	out	0x15, r24	; 21
 12c:	cb 01       	movw	r24, r22
 12e:	01 97       	sbiw	r24, 0x01	; 1
 130:	f1 f7       	brne	.-4      	; 0x12e <display+0x74>
 132:	4f 5f       	subi	r20, 0xFF	; 255
 134:	5f 4f       	sbci	r21, 0xFF	; 255
 136:	32 97       	sbiw	r30, 0x02	; 2
 138:	48 30       	cpi	r20, 0x08	; 8
 13a:	51 05       	cpc	r21, r1
 13c:	49 f7       	brne	.-46     	; 0x110 <display+0x56>
 13e:	28 96       	adiw	r28, 0x08	; 8
 140:	0f b6       	in	r0, 0x3f	; 63
 142:	f8 94       	cli
 144:	de bf       	out	0x3e, r29	; 62
 146:	0f be       	out	0x3f, r0	; 63
 148:	cd bf       	out	0x3d, r28	; 61
 14a:	cf 91       	pop	r28
 14c:	df 91       	pop	r29
 14e:	08 95       	ret

00000150 <__divmodhi4>:
 150:	97 fb       	bst	r25, 7
 152:	09 2e       	mov	r0, r25
 154:	07 26       	eor	r0, r23
 156:	0a d0       	rcall	.+20     	; 0x16c <__divmodhi4_neg1>
 158:	77 fd       	sbrc	r23, 7
 15a:	04 d0       	rcall	.+8      	; 0x164 <__divmodhi4_neg2>
 15c:	0c d0       	rcall	.+24     	; 0x176 <__udivmodhi4>
 15e:	06 d0       	rcall	.+12     	; 0x16c <__divmodhi4_neg1>
 160:	00 20       	and	r0, r0
 162:	1a f4       	brpl	.+6      	; 0x16a <__divmodhi4_exit>

00000164 <__divmodhi4_neg2>:
 164:	70 95       	com	r23
 166:	61 95       	neg	r22
 168:	7f 4f       	sbci	r23, 0xFF	; 255

0000016a <__divmodhi4_exit>:
 16a:	08 95       	ret

0000016c <__divmodhi4_neg1>:
 16c:	f6 f7       	brtc	.-4      	; 0x16a <__divmodhi4_exit>
 16e:	90 95       	com	r25
 170:	81 95       	neg	r24
 172:	9f 4f       	sbci	r25, 0xFF	; 255
 174:	08 95       	ret

00000176 <__udivmodhi4>:
 176:	aa 1b       	sub	r26, r26
 178:	bb 1b       	sub	r27, r27
 17a:	51 e1       	ldi	r21, 0x11	; 17
 17c:	07 c0       	rjmp	.+14     	; 0x18c <__udivmodhi4_ep>

0000017e <__udivmodhi4_loop>:
 17e:	aa 1f       	adc	r26, r26
 180:	bb 1f       	adc	r27, r27
 182:	a6 17       	cp	r26, r22
 184:	b7 07       	cpc	r27, r23
 186:	10 f0       	brcs	.+4      	; 0x18c <__udivmodhi4_ep>
 188:	a6 1b       	sub	r26, r22
 18a:	b7 0b       	sbc	r27, r23

0000018c <__udivmodhi4_ep>:
 18c:	88 1f       	adc	r24, r24
 18e:	99 1f       	adc	r25, r25
 190:	5a 95       	dec	r21
 192:	a9 f7       	brne	.-22     	; 0x17e <__udivmodhi4_loop>
 194:	80 95       	com	r24
 196:	90 95       	com	r25
 198:	bc 01       	movw	r22, r24
 19a:	cd 01       	movw	r24, r26
 19c:	08 95       	ret

0000019e <_exit>:
 19e:	f8 94       	cli

000001a0 <__stop_program>:
 1a0:	ff cf       	rjmp	.-2      	; 0x1a0 <__stop_program>
