
main.elf:     file format elf32-avr

Sections:
Idx Name          Size      VMA       LMA       File off  Algn
  0 .text         000000ba  00000000  00000000  00000054  2**1
                  CONTENTS, ALLOC, LOAD, READONLY, CODE
  1 .debug_aranges 00000020  00000000  00000000  0000010e  2**0
                  CONTENTS, READONLY, DEBUGGING
  2 .debug_pubnames 0000001b  00000000  00000000  0000012e  2**0
                  CONTENTS, READONLY, DEBUGGING
  3 .debug_info   0000011e  00000000  00000000  00000149  2**0
                  CONTENTS, READONLY, DEBUGGING
  4 .debug_abbrev 000000bf  00000000  00000000  00000267  2**0
                  CONTENTS, READONLY, DEBUGGING
  5 .debug_line   00000149  00000000  00000000  00000326  2**0
                  CONTENTS, READONLY, DEBUGGING
  6 .debug_frame  00000020  00000000  00000000  00000470  2**2
                  CONTENTS, READONLY, DEBUGGING
  7 .debug_str    000000c4  00000000  00000000  00000490  2**0
                  CONTENTS, READONLY, DEBUGGING
  8 .debug_loc    00000070  00000000  00000000  00000554  2**0
                  CONTENTS, READONLY, DEBUGGING
  9 .debug_ranges 00000048  00000000  00000000  000005c4  2**0
                  CONTENTS, READONLY, DEBUGGING

Disassembly of section .text:

00000000 <__vectors>:
   0:	0c 94 2a 00 	jmp	0x54	; 0x54 <__ctors_end>
   4:	0c 94 34 00 	jmp	0x68	; 0x68 <__bad_interrupt>
   8:	0c 94 34 00 	jmp	0x68	; 0x68 <__bad_interrupt>
   c:	0c 94 34 00 	jmp	0x68	; 0x68 <__bad_interrupt>
  10:	0c 94 34 00 	jmp	0x68	; 0x68 <__bad_interrupt>
  14:	0c 94 34 00 	jmp	0x68	; 0x68 <__bad_interrupt>
  18:	0c 94 34 00 	jmp	0x68	; 0x68 <__bad_interrupt>
  1c:	0c 94 34 00 	jmp	0x68	; 0x68 <__bad_interrupt>
  20:	0c 94 34 00 	jmp	0x68	; 0x68 <__bad_interrupt>
  24:	0c 94 34 00 	jmp	0x68	; 0x68 <__bad_interrupt>
  28:	0c 94 34 00 	jmp	0x68	; 0x68 <__bad_interrupt>
  2c:	0c 94 34 00 	jmp	0x68	; 0x68 <__bad_interrupt>
  30:	0c 94 34 00 	jmp	0x68	; 0x68 <__bad_interrupt>
  34:	0c 94 34 00 	jmp	0x68	; 0x68 <__bad_interrupt>
  38:	0c 94 34 00 	jmp	0x68	; 0x68 <__bad_interrupt>
  3c:	0c 94 34 00 	jmp	0x68	; 0x68 <__bad_interrupt>
  40:	0c 94 34 00 	jmp	0x68	; 0x68 <__bad_interrupt>
  44:	0c 94 34 00 	jmp	0x68	; 0x68 <__bad_interrupt>
  48:	0c 94 34 00 	jmp	0x68	; 0x68 <__bad_interrupt>
  4c:	0c 94 34 00 	jmp	0x68	; 0x68 <__bad_interrupt>
  50:	0c 94 34 00 	jmp	0x68	; 0x68 <__bad_interrupt>

00000054 <__ctors_end>:
  54:	11 24       	eor	r1, r1
  56:	1f be       	out	0x3f, r1	; 63
  58:	cf e5       	ldi	r28, 0x5F	; 95
  5a:	d8 e0       	ldi	r29, 0x08	; 8
  5c:	de bf       	out	0x3e, r29	; 62
  5e:	cd bf       	out	0x3d, r28	; 61
  60:	0e 94 36 00 	call	0x6c	; 0x6c <main>
  64:	0c 94 5b 00 	jmp	0xb6	; 0xb6 <_exit>

00000068 <__bad_interrupt>:
  68:	0c 94 00 00 	jmp	0	; 0x0 <__vectors>

0000006c <main>:
#include<avr/io.h>
#include<util/delay.h>

int main(){

	DDRB |=0b01010101;
  6c:	87 b3       	in	r24, 0x17	; 23
  6e:	85 65       	ori	r24, 0x55	; 85
  70:	87 bb       	out	0x17, r24	; 23
  72:	80 e0       	ldi	r24, 0x00	; 0
  74:	90 e0       	ldi	r25, 0x00	; 0
	int flag=0;
	while(1){
		PORTB |= 1<<flag;
  76:	a1 e0       	ldi	r26, 0x01	; 1
  78:	b0 e0       	ldi	r27, 0x00	; 0
    milliseconds can be achieved.
 */
void
_delay_loop_2(uint16_t __count)
{
	__asm__ volatile (
  7a:	68 ec       	ldi	r22, 0xC8	; 200
  7c:	70 e0       	ldi	r23, 0x00	; 0
#include<avr/io.h>
#include<util/delay.h>

int main(){

	DDRB |=0b01010101;
  7e:	ac 01       	movw	r20, r24
	int flag=0;
	while(1){
		PORTB |= 1<<flag;
  80:	28 b3       	in	r18, 0x18	; 24
  82:	cd 01       	movw	r24, r26
  84:	04 2e       	mov	r0, r20
  86:	02 c0       	rjmp	.+4      	; 0x8c <main+0x20>
  88:	88 0f       	add	r24, r24
  8a:	99 1f       	adc	r25, r25
  8c:	0a 94       	dec	r0
  8e:	e2 f7       	brpl	.-8      	; 0x88 <main+0x1c>
  90:	28 2b       	or	r18, r24
  92:	28 bb       	out	0x18, r18	; 24
  94:	88 ee       	ldi	r24, 0xE8	; 232
  96:	93 e0       	ldi	r25, 0x03	; 3
  98:	fb 01       	movw	r30, r22
  9a:	31 97       	sbiw	r30, 0x01	; 1
  9c:	f1 f7       	brne	.-4      	; 0x9a <main+0x2e>
		__ticks = (uint16_t) (__ms * 10.0);
		while(__ticks)
		{
			// wait 1/10 ms
			_delay_loop_2(((F_CPU) / 4e3) / 10);
			__ticks --;
  9e:	01 97       	sbiw	r24, 0x01	; 1
		__ticks = 1;
	else if (__tmp > 65535)
	{
		//	__ticks = requested delay in 1/10 ms
		__ticks = (uint16_t) (__ms * 10.0);
		while(__ticks)
  a0:	d9 f7       	brne	.-10     	; 0x98 <main+0x2c>
		_delay_ms(100);
		PORTB &= 0<<flag;
  a2:	88 b3       	in	r24, 0x18	; 24
  a4:	18 ba       	out	0x18, r1	; 24
		flag=flag+2;
  a6:	ca 01       	movw	r24, r20
  a8:	02 96       	adiw	r24, 0x02	; 2
  aa:	40 e0       	ldi	r20, 0x00	; 0
  ac:	50 e0       	ldi	r21, 0x00	; 0
		if(flag>6) flag=0;
  ae:	87 30       	cpi	r24, 0x07	; 7
  b0:	91 05       	cpc	r25, r1
  b2:	2c f3       	brlt	.-54     	; 0x7e <main+0x12>
  b4:	e5 cf       	rjmp	.-54     	; 0x80 <main+0x14>

000000b6 <_exit>:
  b6:	f8 94       	cli

000000b8 <__stop_program>:
  b8:	ff cf       	rjmp	.-2      	; 0xb8 <__stop_program>
