:100000000C942A000C9434000C9434000C943400AA
:100010000C9434000C9434000C9434000C94340090
:100020000C9434000C9434000C9434000C94340080
:100030000C9434000C9434000C9434000C94340070
:100040000C9434000C9434000C9434000C94340060
:100050000C94340011241FBECFE5D8E0DEBFCDBF25
:100060000E9436000C945B000C94000087B38565F9
:1000700087BB80E090E0A1E0B0E068EC70E0AC010C
:1000800028B3CD01042E02C0880F991F0A94E2F70D
:10009000282B28BB88EE93E0FB013197F1F70197FD
:1000A000D9F788B318BACA01029640E050E0873009
:0A00B00091052CF3E5CFF894FFCF83
:00000001FF
