
main.elf:     file format elf32-avr

Sections:
Idx Name          Size      VMA       LMA       File off  Algn
  0 .text         00000158  00000000  00000000  00000054  2**1
                  CONTENTS, ALLOC, LOAD, READONLY, CODE
  1 .debug_aranges 00000040  00000000  00000000  000001ac  2**0
                  CONTENTS, READONLY, DEBUGGING
  2 .debug_pubnames 00000039  00000000  00000000  000001ec  2**0
                  CONTENTS, READONLY, DEBUGGING
  3 .debug_info   000001e0  00000000  00000000  00000225  2**0
                  CONTENTS, READONLY, DEBUGGING
  4 .debug_abbrev 0000013d  00000000  00000000  00000405  2**0
                  CONTENTS, READONLY, DEBUGGING
  5 .debug_line   000001b7  00000000  00000000  00000542  2**0
                  CONTENTS, READONLY, DEBUGGING
  6 .debug_frame  00000040  00000000  00000000  000006fc  2**2
                  CONTENTS, READONLY, DEBUGGING
  7 .debug_str    000000c9  00000000  00000000  0000073c  2**0
                  CONTENTS, READONLY, DEBUGGING
  8 .debug_loc    00000028  00000000  00000000  00000805  2**0
                  CONTENTS, READONLY, DEBUGGING
  9 .debug_ranges 00000048  00000000  00000000  0000082d  2**0
                  CONTENTS, READONLY, DEBUGGING

Disassembly of section .text:

00000000 <__vectors>:
   0:	0c 94 2a 00 	jmp	0x54	; 0x54 <__ctors_end>
   4:	0c 94 34 00 	jmp	0x68	; 0x68 <__bad_interrupt>
   8:	0c 94 34 00 	jmp	0x68	; 0x68 <__bad_interrupt>
   c:	0c 94 34 00 	jmp	0x68	; 0x68 <__bad_interrupt>
  10:	0c 94 34 00 	jmp	0x68	; 0x68 <__bad_interrupt>
  14:	0c 94 34 00 	jmp	0x68	; 0x68 <__bad_interrupt>
  18:	0c 94 34 00 	jmp	0x68	; 0x68 <__bad_interrupt>
  1c:	0c 94 34 00 	jmp	0x68	; 0x68 <__bad_interrupt>
  20:	0c 94 34 00 	jmp	0x68	; 0x68 <__bad_interrupt>
  24:	0c 94 34 00 	jmp	0x68	; 0x68 <__bad_interrupt>
  28:	0c 94 34 00 	jmp	0x68	; 0x68 <__bad_interrupt>
  2c:	0c 94 34 00 	jmp	0x68	; 0x68 <__bad_interrupt>
  30:	0c 94 34 00 	jmp	0x68	; 0x68 <__bad_interrupt>
  34:	0c 94 34 00 	jmp	0x68	; 0x68 <__bad_interrupt>
  38:	0c 94 34 00 	jmp	0x68	; 0x68 <__bad_interrupt>
  3c:	0c 94 34 00 	jmp	0x68	; 0x68 <__bad_interrupt>
  40:	0c 94 34 00 	jmp	0x68	; 0x68 <__bad_interrupt>
  44:	0c 94 34 00 	jmp	0x68	; 0x68 <__bad_interrupt>
  48:	0c 94 34 00 	jmp	0x68	; 0x68 <__bad_interrupt>
  4c:	0c 94 34 00 	jmp	0x68	; 0x68 <__bad_interrupt>
  50:	0c 94 34 00 	jmp	0x68	; 0x68 <__bad_interrupt>

00000054 <__ctors_end>:
  54:	11 24       	eor	r1, r1
  56:	1f be       	out	0x3f, r1	; 63
  58:	cf e5       	ldi	r28, 0x5F	; 95
  5a:	d8 e0       	ldi	r29, 0x08	; 8
  5c:	de bf       	out	0x3e, r29	; 62
  5e:	cd bf       	out	0x3d, r28	; 61
  60:	0e 94 36 00 	call	0x6c	; 0x6c <main>
  64:	0c 94 aa 00 	jmp	0x154	; 0x154 <_exit>

00000068 <__bad_interrupt>:
  68:	0c 94 00 00 	jmp	0	; 0x0 <__vectors>

0000006c <main>:



void main()
{
	DDRA=0b11111111;
  6c:	8f ef       	ldi	r24, 0xFF	; 255
  6e:	8a bb       	out	0x1a, r24	; 26
 
    while(1){
    	int b=7895;
    	display(b);
  70:	87 ed       	ldi	r24, 0xD7	; 215
  72:	9e e1       	ldi	r25, 0x1E	; 30
  74:	0e 94 3d 00 	call	0x7a	; 0x7a <display>
  78:	fb cf       	rjmp	.-10     	; 0x70 <main+0x4>

0000007a <display>:
#include<avr/io.h>
#include<util/delay.h>


void display(int num){
  7a:	df 93       	push	r29
  7c:	cf 93       	push	r28
  7e:	cd b7       	in	r28, 0x3d	; 61
  80:	de b7       	in	r29, 0x3e	; 62
  82:	28 97       	sbiw	r28, 0x08	; 8
  84:	0f b6       	in	r0, 0x3f	; 63
  86:	f8 94       	cli
  88:	de bf       	out	0x3e, r29	; 62
  8a:	0f be       	out	0x3f, r0	; 63
  8c:	cd bf       	out	0x3d, r28	; 61
  8e:	9c 01       	movw	r18, r24
  90:	fe 01       	movw	r30, r28
  92:	31 96       	adiw	r30, 0x01	; 1
  94:	0d c0       	rjmp	.+26     	; 0xb0 <display+0x36>
    int digit[4];
    int i=0;
    int count=4;
	while (num != 0) {
   	 digit[i] = num % 10;
  96:	c9 01       	movw	r24, r18
  98:	6a e0       	ldi	r22, 0x0A	; 10
  9a:	70 e0       	ldi	r23, 0x00	; 0
  9c:	0e 94 83 00 	call	0x106	; 0x106 <__divmodhi4>
  a0:	81 93       	st	Z+, r24
  a2:	91 93       	st	Z+, r25
   	 num = num / 10;
  a4:	c9 01       	movw	r24, r18
  a6:	6a e0       	ldi	r22, 0x0A	; 10
  a8:	70 e0       	ldi	r23, 0x00	; 0
  aa:	0e 94 83 00 	call	0x106	; 0x106 <__divmodhi4>
  ae:	9b 01       	movw	r18, r22

void display(int num){
    int digit[4];
    int i=0;
    int count=4;
	while (num != 0) {
  b0:	21 15       	cp	r18, r1
  b2:	31 05       	cpc	r19, r1
  b4:	81 f7       	brne	.-32     	; 0x96 <display+0x1c>
  b6:	fe 01       	movw	r30, r28
  b8:	37 96       	adiw	r30, 0x07	; 7
  ba:	44 e0       	ldi	r20, 0x04	; 4
  bc:	50 e0       	ldi	r21, 0x00	; 0
   	 i++;
    }
    
    for(int j=3;j>=0;j--){
   	 PORTA=(digit[j]|0b11110000);
    	PORTA&=~(1<<count);   
  be:	a1 e0       	ldi	r26, 0x01	; 1
  c0:	b0 e0       	ldi	r27, 0x00	; 0
    milliseconds can be achieved.
 */
void
_delay_loop_2(uint16_t __count)
{
	__asm__ volatile (
  c2:	60 ed       	ldi	r22, 0xD0	; 208
  c4:	77 e0       	ldi	r23, 0x07	; 7
   	 num = num / 10;
   	 i++;
    }
    
    for(int j=3;j>=0;j--){
   	 PORTA=(digit[j]|0b11110000);
  c6:	80 81       	ld	r24, Z
  c8:	80 6f       	ori	r24, 0xF0	; 240
  ca:	8b bb       	out	0x1b, r24	; 27
    	PORTA&=~(1<<count);   
  cc:	2b b3       	in	r18, 0x1b	; 27
  ce:	cd 01       	movw	r24, r26
  d0:	04 2e       	mov	r0, r20
  d2:	02 c0       	rjmp	.+4      	; 0xd8 <display+0x5e>
  d4:	88 0f       	add	r24, r24
  d6:	99 1f       	adc	r25, r25
  d8:	0a 94       	dec	r0
  da:	e2 f7       	brpl	.-8      	; 0xd4 <display+0x5a>
  dc:	80 95       	com	r24
  de:	82 23       	and	r24, r18
  e0:	8b bb       	out	0x1b, r24	; 27
  e2:	cb 01       	movw	r24, r22
  e4:	01 97       	sbiw	r24, 0x01	; 1
  e6:	f1 f7       	brne	.-4      	; 0xe4 <display+0x6a>
    	_delay_ms(1);
   	 count++;
  e8:	4f 5f       	subi	r20, 0xFF	; 255
  ea:	5f 4f       	sbci	r21, 0xFF	; 255
  ec:	32 97       	sbiw	r30, 0x02	; 2
   	 digit[i] = num % 10;
   	 num = num / 10;
   	 i++;
    }
    
    for(int j=3;j>=0;j--){
  ee:	48 30       	cpi	r20, 0x08	; 8
  f0:	51 05       	cpc	r21, r1
  f2:	49 f7       	brne	.-46     	; 0xc6 <display+0x4c>
   	 PORTA=(digit[j]|0b11110000);
    	PORTA&=~(1<<count);   
    	_delay_ms(1);
   	 count++;
    }
}
  f4:	28 96       	adiw	r28, 0x08	; 8
  f6:	0f b6       	in	r0, 0x3f	; 63
  f8:	f8 94       	cli
  fa:	de bf       	out	0x3e, r29	; 62
  fc:	0f be       	out	0x3f, r0	; 63
  fe:	cd bf       	out	0x3d, r28	; 61
 100:	cf 91       	pop	r28
 102:	df 91       	pop	r29
 104:	08 95       	ret

00000106 <__divmodhi4>:
 106:	97 fb       	bst	r25, 7
 108:	09 2e       	mov	r0, r25
 10a:	07 26       	eor	r0, r23
 10c:	0a d0       	rcall	.+20     	; 0x122 <__divmodhi4_neg1>
 10e:	77 fd       	sbrc	r23, 7
 110:	04 d0       	rcall	.+8      	; 0x11a <__divmodhi4_neg2>
 112:	0c d0       	rcall	.+24     	; 0x12c <__udivmodhi4>
 114:	06 d0       	rcall	.+12     	; 0x122 <__divmodhi4_neg1>
 116:	00 20       	and	r0, r0
 118:	1a f4       	brpl	.+6      	; 0x120 <__divmodhi4_exit>

0000011a <__divmodhi4_neg2>:
 11a:	70 95       	com	r23
 11c:	61 95       	neg	r22
 11e:	7f 4f       	sbci	r23, 0xFF	; 255

00000120 <__divmodhi4_exit>:
 120:	08 95       	ret

00000122 <__divmodhi4_neg1>:
 122:	f6 f7       	brtc	.-4      	; 0x120 <__divmodhi4_exit>
 124:	90 95       	com	r25
 126:	81 95       	neg	r24
 128:	9f 4f       	sbci	r25, 0xFF	; 255
 12a:	08 95       	ret

0000012c <__udivmodhi4>:
 12c:	aa 1b       	sub	r26, r26
 12e:	bb 1b       	sub	r27, r27
 130:	51 e1       	ldi	r21, 0x11	; 17
 132:	07 c0       	rjmp	.+14     	; 0x142 <__udivmodhi4_ep>

00000134 <__udivmodhi4_loop>:
 134:	aa 1f       	adc	r26, r26
 136:	bb 1f       	adc	r27, r27
 138:	a6 17       	cp	r26, r22
 13a:	b7 07       	cpc	r27, r23
 13c:	10 f0       	brcs	.+4      	; 0x142 <__udivmodhi4_ep>
 13e:	a6 1b       	sub	r26, r22
 140:	b7 0b       	sbc	r27, r23

00000142 <__udivmodhi4_ep>:
 142:	88 1f       	adc	r24, r24
 144:	99 1f       	adc	r25, r25
 146:	5a 95       	dec	r21
 148:	a9 f7       	brne	.-22     	; 0x134 <__udivmodhi4_loop>
 14a:	80 95       	com	r24
 14c:	90 95       	com	r25
 14e:	bc 01       	movw	r22, r24
 150:	cd 01       	movw	r24, r26
 152:	08 95       	ret

00000154 <_exit>:
 154:	f8 94       	cli

00000156 <__stop_program>:
 156:	ff cf       	rjmp	.-2      	; 0x156 <__stop_program>
