:100000000C942A000C9434000C9434000C943400AA
:100010000C9434000C9434000C9434000C94340090
:100020000C9434000C9434000C9434000C94340080
:100030000C9434000C9434000C9434000C94340070
:100040000C9434000C9434000C9434000C94340060
:100050000C94340011241FBECFE5D8E0DEBFCDBF25
:100060000E9436000C9496000C940000DF93CF930E
:10007000CDB7DEB76E970FB6F894DEBF0FBECDBF1B
:100080008FEF87BB1ABA81BB8BBBFE0131968EE125
:10009000DF011D928A95E9F78FE390E09A838983C7
:1000A00086E090E09C838B838BE590E09E838D833C
:1000B0008FE490E098878F8386E690E09A8789871F
:1000C0008DE690E09C878B878DE790E09E878D87FB
:1000D00087E090E0988B8F878FE790E09A8B898BF1
:1000E00087E690E09C8B8B8B20E030E0DF0168ECB2
:1000F00070E0A90189B388BB86B38E3FD9F79A0116
:100100002F5F3F4FF901EE0FFF1FEA0FFB1F8081AA
:1001100082BB88EE93E0FB013197F1F70197D9F7A5
:1001200040E050E02A30310524F3E4CFF894FFCFCB
:00000001FF
