
main.elf:     file format elf32-avr

Sections:
Idx Name          Size      VMA       LMA       File off  Algn
  0 .text         0000011c  00000000  00000000  00000054  2**1
                  CONTENTS, ALLOC, LOAD, READONLY, CODE
  1 .debug_aranges 00000020  00000000  00000000  00000170  2**0
                  CONTENTS, READONLY, DEBUGGING
  2 .debug_pubnames 0000001b  00000000  00000000  00000190  2**0
                  CONTENTS, READONLY, DEBUGGING
  3 .debug_info   0000014c  00000000  00000000  000001ab  2**0
                  CONTENTS, READONLY, DEBUGGING
  4 .debug_abbrev 000000f6  00000000  00000000  000002f7  2**0
                  CONTENTS, READONLY, DEBUGGING
  5 .debug_line   00000139  00000000  00000000  000003ed  2**0
                  CONTENTS, READONLY, DEBUGGING
  6 .debug_frame  00000020  00000000  00000000  00000528  2**2
                  CONTENTS, READONLY, DEBUGGING
  7 .debug_str    000000b1  00000000  00000000  00000548  2**0
                  CONTENTS, READONLY, DEBUGGING
  8 .debug_loc    00000050  00000000  00000000  000005f9  2**0
                  CONTENTS, READONLY, DEBUGGING
  9 .debug_ranges 00000048  00000000  00000000  00000649  2**0
                  CONTENTS, READONLY, DEBUGGING

Disassembly of section .text:

00000000 <__vectors>:
   0:	0c 94 2a 00 	jmp	0x54	; 0x54 <__ctors_end>
   4:	0c 94 34 00 	jmp	0x68	; 0x68 <__bad_interrupt>
   8:	0c 94 34 00 	jmp	0x68	; 0x68 <__bad_interrupt>
   c:	0c 94 34 00 	jmp	0x68	; 0x68 <__bad_interrupt>
  10:	0c 94 34 00 	jmp	0x68	; 0x68 <__bad_interrupt>
  14:	0c 94 34 00 	jmp	0x68	; 0x68 <__bad_interrupt>
  18:	0c 94 34 00 	jmp	0x68	; 0x68 <__bad_interrupt>
  1c:	0c 94 34 00 	jmp	0x68	; 0x68 <__bad_interrupt>
  20:	0c 94 34 00 	jmp	0x68	; 0x68 <__bad_interrupt>
  24:	0c 94 34 00 	jmp	0x68	; 0x68 <__bad_interrupt>
  28:	0c 94 34 00 	jmp	0x68	; 0x68 <__bad_interrupt>
  2c:	0c 94 34 00 	jmp	0x68	; 0x68 <__bad_interrupt>
  30:	0c 94 34 00 	jmp	0x68	; 0x68 <__bad_interrupt>
  34:	0c 94 34 00 	jmp	0x68	; 0x68 <__bad_interrupt>
  38:	0c 94 34 00 	jmp	0x68	; 0x68 <__bad_interrupt>
  3c:	0c 94 34 00 	jmp	0x68	; 0x68 <__bad_interrupt>
  40:	0c 94 34 00 	jmp	0x68	; 0x68 <__bad_interrupt>
  44:	0c 94 34 00 	jmp	0x68	; 0x68 <__bad_interrupt>
  48:	0c 94 34 00 	jmp	0x68	; 0x68 <__bad_interrupt>
  4c:	0c 94 34 00 	jmp	0x68	; 0x68 <__bad_interrupt>
  50:	0c 94 34 00 	jmp	0x68	; 0x68 <__bad_interrupt>

00000054 <__ctors_end>:
  54:	11 24       	eor	r1, r1
  56:	1f be       	out	0x3f, r1	; 63
  58:	cf e5       	ldi	r28, 0x5F	; 95
  5a:	d8 e0       	ldi	r29, 0x08	; 8
  5c:	de bf       	out	0x3e, r29	; 62
  5e:	cd bf       	out	0x3d, r28	; 61
  60:	0e 94 36 00 	call	0x6c	; 0x6c <main>
  64:	0c 94 8c 00 	jmp	0x118	; 0x118 <_exit>

00000068 <__bad_interrupt>:
  68:	0c 94 00 00 	jmp	0	; 0x0 <__vectors>

0000006c <main>:
 
#define F_CPU	4000000UL
#include <util/delay.h>
 
int main(void)
{
  6c:	df 93       	push	r29
  6e:	cf 93       	push	r28
  70:	cd b7       	in	r28, 0x3d	; 61
  72:	de b7       	in	r29, 0x3e	; 62
  74:	6e 97       	sbiw	r28, 0x1e	; 30
  76:	0f b6       	in	r0, 0x3f	; 63
  78:	f8 94       	cli
  7a:	de bf       	out	0x3e, r29	; 62
  7c:	0f be       	out	0x3f, r0	; 63
  7e:	cd bf       	out	0x3d, r28	; 61
	DDRD = 0xFF;
  80:	8f ef       	ldi	r24, 0xFF	; 255
  82:	81 bb       	out	0x11, r24	; 17
	
	int digits[15] = {0x3F, 0x06,0x5B,0x4F,0x66,0x6D,0x7D,0x07,0x7F,0x67};
  84:	fe 01       	movw	r30, r28
  86:	31 96       	adiw	r30, 0x01	; 1
  88:	8e e1       	ldi	r24, 0x1E	; 30
  8a:	df 01       	movw	r26, r30
  8c:	1d 92       	st	X+, r1
  8e:	8a 95       	dec	r24
  90:	e9 f7       	brne	.-6      	; 0x8c <main+0x20>
  92:	8f e3       	ldi	r24, 0x3F	; 63
  94:	90 e0       	ldi	r25, 0x00	; 0
  96:	9a 83       	std	Y+2, r25	; 0x02
  98:	89 83       	std	Y+1, r24	; 0x01
  9a:	86 e0       	ldi	r24, 0x06	; 6
  9c:	90 e0       	ldi	r25, 0x00	; 0
  9e:	9c 83       	std	Y+4, r25	; 0x04
  a0:	8b 83       	std	Y+3, r24	; 0x03
  a2:	8b e5       	ldi	r24, 0x5B	; 91
  a4:	90 e0       	ldi	r25, 0x00	; 0
  a6:	9e 83       	std	Y+6, r25	; 0x06
  a8:	8d 83       	std	Y+5, r24	; 0x05
  aa:	8f e4       	ldi	r24, 0x4F	; 79
  ac:	90 e0       	ldi	r25, 0x00	; 0
  ae:	98 87       	std	Y+8, r25	; 0x08
  b0:	8f 83       	std	Y+7, r24	; 0x07
  b2:	86 e6       	ldi	r24, 0x66	; 102
  b4:	90 e0       	ldi	r25, 0x00	; 0
  b6:	9a 87       	std	Y+10, r25	; 0x0a
  b8:	89 87       	std	Y+9, r24	; 0x09
  ba:	8d e6       	ldi	r24, 0x6D	; 109
  bc:	90 e0       	ldi	r25, 0x00	; 0
  be:	9c 87       	std	Y+12, r25	; 0x0c
  c0:	8b 87       	std	Y+11, r24	; 0x0b
  c2:	8d e7       	ldi	r24, 0x7D	; 125
  c4:	90 e0       	ldi	r25, 0x00	; 0
  c6:	9e 87       	std	Y+14, r25	; 0x0e
  c8:	8d 87       	std	Y+13, r24	; 0x0d
  ca:	87 e0       	ldi	r24, 0x07	; 7
  cc:	90 e0       	ldi	r25, 0x00	; 0
  ce:	98 8b       	std	Y+16, r25	; 0x10
  d0:	8f 87       	std	Y+15, r24	; 0x0f
  d2:	8f e7       	ldi	r24, 0x7F	; 127
  d4:	90 e0       	ldi	r25, 0x00	; 0
  d6:	9a 8b       	std	Y+18, r25	; 0x12
  d8:	89 8b       	std	Y+17, r24	; 0x11
  da:	87 e6       	ldi	r24, 0x67	; 103
  dc:	90 e0       	ldi	r25, 0x00	; 0
  de:	9c 8b       	std	Y+20, r25	; 0x14
  e0:	8b 8b       	std	Y+19, r24	; 0x13
  e2:	20 e0       	ldi	r18, 0x00	; 0
  e4:	30 e0       	ldi	r19, 0x00	; 0
 
    while(1)
    {
		for(int i=0;i<10;i++){
			PORTD = digits[i];	
  e6:	bf 01       	movw	r22, r30
    milliseconds can be achieved.
 */
void
_delay_loop_2(uint16_t __count)
{
	__asm__ volatile (
  e8:	44 e6       	ldi	r20, 0x64	; 100
  ea:	50 e0       	ldi	r21, 0x00	; 0
  ec:	f9 01       	movw	r30, r18
  ee:	ee 0f       	add	r30, r30
  f0:	ff 1f       	adc	r31, r31
  f2:	e6 0f       	add	r30, r22
  f4:	f7 1f       	adc	r31, r23
  f6:	80 81       	ld	r24, Z
  f8:	82 bb       	out	0x12, r24	; 18
  fa:	88 ee       	ldi	r24, 0xE8	; 232
  fc:	93 e0       	ldi	r25, 0x03	; 3
  fe:	fa 01       	movw	r30, r20
 100:	31 97       	sbiw	r30, 0x01	; 1
 102:	f1 f7       	brne	.-4      	; 0x100 <main+0x94>
		__ticks = (uint16_t) (__ms * 10.0);
		while(__ticks)
		{
			// wait 1/10 ms
			_delay_loop_2(((F_CPU) / 4e3) / 10);
			__ticks --;
 104:	01 97       	sbiw	r24, 0x01	; 1
		__ticks = 1;
	else if (__tmp > 65535)
	{
		//	__ticks = requested delay in 1/10 ms
		__ticks = (uint16_t) (__ms * 10.0);
		while(__ticks)
 106:	d9 f7       	brne	.-10     	; 0xfe <main+0x92>
	
	int digits[15] = {0x3F, 0x06,0x5B,0x4F,0x66,0x6D,0x7D,0x07,0x7F,0x67};
 
    while(1)
    {
		for(int i=0;i<10;i++){
 108:	2f 5f       	subi	r18, 0xFF	; 255
 10a:	3f 4f       	sbci	r19, 0xFF	; 255
 10c:	2a 30       	cpi	r18, 0x0A	; 10
 10e:	31 05       	cpc	r19, r1
 110:	6c f3       	brlt	.-38     	; 0xec <main+0x80>
 112:	20 e0       	ldi	r18, 0x00	; 0
 114:	30 e0       	ldi	r19, 0x00	; 0
 116:	ea cf       	rjmp	.-44     	; 0xec <main+0x80>

00000118 <_exit>:
 118:	f8 94       	cli

0000011a <__stop_program>:
 11a:	ff cf       	rjmp	.-2      	; 0x11a <__stop_program>
