:100000000C942A000C9434000C9434000C943400AA
:100010000C9434000C9434000C9434000C94340090
:100020000C9434000C9434000C9434000C94340080
:100030000C9434000C9434000C9434000C94340070
:100040000C9434000C9434000C9434000C94340060
:100050000C94340011241FBECFE5D8E0DEBFCDBF25
:100060000E9436000C94B1000C9400001F93D09AAB
:10007000D19AD29AD39AD49AD59AD69AD79A11E08D
:1000800028EC30E0B2E0A4E078E060E150E240E447
:100090008BB381278BBB84EF91E0F9013197F1F7A6
:1000A0000197D9F78BB381278BBB8BB38B278BBB86
:1000B00084EF91E0F9013197F1F70197D9F78BB30C
:1000C0008B278BBB8BB38A278BBB84EF91E0F90125
:1000D0003197F1F70197D9F78BB38A278BBB8BB395
:1000E00087278BBB84EF91E0F9013197F1F70197F6
:1000F000D9F78BB387278BBB8BB386278BBB84EF5A
:1001000091E0F9013197F1F70197D9F78BB3862781
:100110008BBB8BB385278BBB84EF91E0F9013197C3
:10012000F1F70197D9F78BB385278BBB8BB3842766
:100130008BBB84EF91E0F9013197F1F70197D9F783
:100140008BB384278BBB8BB380588BBB84EF91E040
:10015000F9013197F1F70197D9F78BB380588BBB31
:0601600097CFF894FFCFD9
:00000001FF
