:100000000C942A000C9434000C9434000C943400AA
:100010000C9434000C9434000C9434000C94340090
:100020000C9434000C9434000C9434000C94340080
:100030000C9434000C9434000C9434000C94340070
:100040000C9434000C9434000C9434000C94340060
:100050000C94340011241FBECFE5D8E0DEBFCDBF25
:100060000E9495000C94C8000C94000080E487B9AD
:1000700084E086B9379A089587B187B9369A24B152
:1000800045B13699FECF30E0942F80E0282B392BF4
:10009000C9010895DF93CF93CDB7DEB728970FB688
:1000A000F894DEBF0FBECDBF9C01FE01319688E003
:1000B000DF011D928A95E9F70DC0C9016AE070E081
:1000C0000E94A10081939193C9016AE070E00E94AF
:1000D000A1009B012115310581F7FE01379644E00F
:1000E00050E0A1E0B0E060ED77E08081806F85BBFB
:1000F00025B3CD01042E02C0880F991F0A94E2F7A0
:100100008095822385BBCB010197F1F74F5F5F4F4D
:1001100032974830510549F728960FB6F894DEBF5C
:100120000FBECDBFCF91DF9108958FEF84BB80E4E8
:1001300087B984E086B9379A0E943C000E944A0041
:10014000FBCF97FB092E07260AD077FD04D00CD0F1
:1001500006D000201AF4709561957F4F0895F6F748
:10016000909581959F4F0895AA1BBB1B51E107C035
:10017000AA1FBB1FA617B70710F0A61BB70B881F37
:10018000991F5A95A9F780959095BC01CD010895C6
:04019000F894FFCF11
:00000001FF
